{
  "_format": "hh-sol-artifact-1",
  "contractName": "Documents",
  "sourceName": "src/backend/contracts/Documents.sol",
  "abi": [
    {
      "inputs": [],
      "stateMutability": "nonpayable",
      "type": "constructor"
    },
    {
      "anonymous": false,
      "inputs": [
        {
          "indexed": false,
          "internalType": "address",
          "name": "user",
          "type": "address"
        }
      ],
      "name": "DocumentAdded",
      "type": "event"
    },
    {
      "anonymous": false,
      "inputs": [
        {
          "indexed": false,
          "internalType": "address",
          "name": "user",
          "type": "address"
        }
      ],
      "name": "DocumentVerified",
      "type": "event"
    },
    {
      "anonymous": false,
      "inputs": [
        {
          "indexed": false,
          "internalType": "uint256",
          "name": "test",
          "type": "uint256"
        }
      ],
      "name": "test",
      "type": "event"
    },
    {
      "inputs": [
        {
          "internalType": "address",
          "name": "_verifier",
          "type": "address"
        },
        {
          "internalType": "string",
          "name": "_name",
          "type": "string"
        },
        {
          "internalType": "string",
          "name": "_description",
          "type": "string"
        },
        {
          "internalType": "string",
          "name": "_docAddress",
          "type": "string"
        }
      ],
      "name": "addDocument",
      "outputs": [],
      "stateMutability": "payable",
      "type": "function"
    },
    {
      "inputs": [
        {
          "internalType": "string",
          "name": "_a",
          "type": "string"
        },
        {
          "internalType": "string",
          "name": "_b",
          "type": "string"
        }
      ],
      "name": "compare",
      "outputs": [
        {
          "internalType": "int256",
          "name": "",
          "type": "int256"
        }
      ],
      "stateMutability": "pure",
      "type": "function"
    },
    {
      "inputs": [
        {
          "internalType": "string",
          "name": "_a",
          "type": "string"
        },
        {
          "internalType": "string",
          "name": "_b",
          "type": "string"
        }
      ],
      "name": "equal",
      "outputs": [
        {
          "internalType": "bool",
          "name": "",
          "type": "bool"
        }
      ],
      "stateMutability": "pure",
      "type": "function"
    },
    {
      "inputs": [
        {
          "internalType": "address",
          "name": "account",
          "type": "address"
        }
      ],
      "name": "getCounts",
      "outputs": [
        {
          "internalType": "uint256",
          "name": "verified",
          "type": "uint256"
        },
        {
          "internalType": "uint256",
          "name": "rejected",
          "type": "uint256"
        },
        {
          "internalType": "uint256",
          "name": "total",
          "type": "uint256"
        }
      ],
      "stateMutability": "view",
      "type": "function"
    },
    {
      "inputs": [
        {
          "internalType": "string",
          "name": "docAddress",
          "type": "string"
        }
      ],
      "name": "getDocument",
      "outputs": [
        {
          "internalType": "string",
          "name": "name",
          "type": "string"
        },
        {
          "internalType": "address",
          "name": "requester",
          "type": "address"
        },
        {
          "internalType": "address",
          "name": "verifier",
          "type": "address"
        },
        {
          "internalType": "string",
          "name": "description",
          "type": "string"
        },
        {
          "internalType": "enum Documents.DocStatus",
          "name": "status",
          "type": "uint8"
        }
      ],
      "stateMutability": "view",
      "type": "function"
    },
    {
      "inputs": [
        {
          "internalType": "address",
          "name": "_requester",
          "type": "address"
        },
        {
          "internalType": "uint256",
          "name": "lIndex",
          "type": "uint256"
        }
      ],
      "name": "getRequesterDocuments",
      "outputs": [
        {
          "internalType": "string",
          "name": "name",
          "type": "string"
        },
        {
          "internalType": "address",
          "name": "verifier",
          "type": "address"
        },
        {
          "internalType": "string",
          "name": "description",
          "type": "string"
        },
        {
          "internalType": "string",
          "name": "docAddress",
          "type": "string"
        },
        {
          "internalType": "enum Documents.DocStatus",
          "name": "status",
          "type": "uint8"
        },
        {
          "internalType": "uint256",
          "name": "index",
          "type": "uint256"
        }
      ],
      "stateMutability": "view",
      "type": "function"
    },
    {
      "inputs": [
        {
          "internalType": "address",
          "name": "_verifier",
          "type": "address"
        },
        {
          "internalType": "uint256",
          "name": "lIndex",
          "type": "uint256"
        }
      ],
      "name": "getVerifierDocuments",
      "outputs": [
        {
          "internalType": "string",
          "name": "name",
          "type": "string"
        },
        {
          "internalType": "address",
          "name": "requester",
          "type": "address"
        },
        {
          "internalType": "string",
          "name": "description",
          "type": "string"
        },
        {
          "internalType": "string",
          "name": "docAddress",
          "type": "string"
        },
        {
          "internalType": "enum Documents.DocStatus",
          "name": "status",
          "type": "uint8"
        },
        {
          "internalType": "uint256",
          "name": "index",
          "type": "uint256"
        }
      ],
      "stateMutability": "view",
      "type": "function"
    },
    {
      "inputs": [
        {
          "internalType": "string",
          "name": "_haystack",
          "type": "string"
        },
        {
          "internalType": "string",
          "name": "_needle",
          "type": "string"
        }
      ],
      "name": "indexOf",
      "outputs": [
        {
          "internalType": "int256",
          "name": "",
          "type": "int256"
        }
      ],
      "stateMutability": "pure",
      "type": "function"
    },
    {
      "inputs": [],
      "name": "owner",
      "outputs": [
        {
          "internalType": "address",
          "name": "",
          "type": "address"
        }
      ],
      "stateMutability": "view",
      "type": "function"
    },
    {
      "inputs": [
        {
          "internalType": "string",
          "name": "docAddress",
          "type": "string"
        },
        {
          "internalType": "enum Documents.DocStatus",
          "name": "status",
          "type": "uint8"
        }
      ],
      "name": "verifyDocument",
      "outputs": [],
      "stateMutability": "payable",
      "type": "function"
    }
  ],
  "bytecode": "0x608060405234801561001057600080fd5b50336000806101000a81548173ffffffffffffffffffffffffffffffffffffffff021916908373ffffffffffffffffffffffffffffffffffffffff160217905550612d5e806100606000396000f3fe6080604052600436106100915760003560e01c80638a0807b7116100595780638a0807b7146101ac5780638da5cb5b146101e9578063942037fa146102145780639fef690414610256578063e4678dfb1461029857610091565b80630225757e146100965780633a96fdd7146100b257806346bdca9a146100ef5780635b4674041461012c5780637ccb6a641461016b575b600080fd5b6100b060048036038101906100ab91906125a5565b6102b4565b005b3480156100be57600080fd5b506100d960048036038101906100d49190612721565b61076f565b6040516100e6919061286a565b60405180910390f35b3480156100fb57600080fd5b5061011660048036038101906101119190612721565b6109e3565b604051610123919061284f565b60405180910390f35b34801561013857600080fd5b50610153600480360381019061014e919061257c565b6109f9565b6040516101629392919061297c565b60405180910390f35b34801561017757600080fd5b50610192600480360381019061018d919061268c565b610ad4565b6040516101a3959493929190612885565b60405180910390f35b3480156101b857600080fd5b506101d360048036038101906101ce9190612721565b610ed7565b6040516101e0919061286a565b60405180910390f35b3480156101f557600080fd5b506101fe6111c0565b60405161020b9190612834565b60405180910390f35b34801561022057600080fd5b5061023b60048036038101906102369190612650565b6111e4565b60405161024d969594939291906128e6565b60405180910390f35b34801561026257600080fd5b5061027d60048036038101906102789190612650565b611611565b60405161028f969594939291906128e6565b60405180910390f35b6102b260048036038101906102ad91906126cd565b611a3e565b005b806000805b6001805490508110156103c4576103a360018281548110610303577f4e487b7100000000000000000000000000000000000000000000000000000000600052603260045260246000fd5b9060005260206000209060060201600401805461031f90612b34565b80601f016020809104026020016040519081016040528092919081815260200182805461034b90612b34565b80156103985780601f1061036d57610100808354040283529160200191610398565b820191906000526020600020905b81548152906001019060200180831161037b57829003601f168201915b5050505050846109e3565b156103b157600191506103c4565b80806103bc90612b97565b9150506102b9565b50600115158115151461040c576040517f08c379a00000000000000000000000000000000000000000000000000000000081526004016104039061295c565b60405180910390fd5b7f789ba6f7cf2054e80c94618ed522f3f52ea04a6d85eac2eda1ff5b88c9a0e9a73360405161043b9190612834565b60405180910390a160016040518060c001604052803373ffffffffffffffffffffffffffffffffffffffff1681526020018873ffffffffffffffffffffffffffffffffffffffff168152602001878152602001868152602001858152602001600060028111156104d4577f4e487b7100000000000000000000000000000000000000000000000000000000600052602160045260246000fd5b815250908060018154018082558091505060019003906000526020600020906006020160009091909190915060008201518160000160006101000a81548173ffffffffffffffffffffffffffffffffffffffff021916908373ffffffffffffffffffffffffffffffffffffffff16021790555060208201518160010160006101000a81548173ffffffffffffffffffffffffffffffffffffffff021916908373ffffffffffffffffffffffffffffffffffffffff16021790555060408201518160020190805190602001906105aa929190612432565b5060608201518160030190805190602001906105c7929190612432565b5060808201518160040190805190602001906105e4929190612432565b5060a08201518160050160006101000a81548160ff02191690836002811115610636577f4e487b7100000000000000000000000000000000000000000000000000000000600052602160045260246000fd5b021790555050506001600260003373ffffffffffffffffffffffffffffffffffffffff1673ffffffffffffffffffffffffffffffffffffffff1681526020019081526020016000206002015461068c9190612a25565b600260003373ffffffffffffffffffffffffffffffffffffffff1673ffffffffffffffffffffffffffffffffffffffff168152602001908152602001600020600201819055506001600260008873ffffffffffffffffffffffffffffffffffffffff1673ffffffffffffffffffffffffffffffffffffffff168152602001908152602001600020600201546107219190612a25565b600260008873ffffffffffffffffffffffffffffffffffffffff1673ffffffffffffffffffffffffffffffffffffffff16815260200190815260200160002060020181905550505050505050565b6000808390506000839050600082519050808251101561078e57815190505b60005b81811015610989578281815181106107d2577f4e487b7100000000000000000000000000000000000000000000000000000000600052603260045260246000fd5b602001015160f81c60f81b7effffffffffffffffffffffffffffffffffffffffffffffffffffffffffffff1916848281518110610838577f4e487b7100000000000000000000000000000000000000000000000000000000600052603260045260246000fd5b602001015160f81c60f81b7effffffffffffffffffffffffffffffffffffffffffffffffffffffffffffff19161015610897577fffffffffffffffffffffffffffffffffffffffffffffffffffffffffffffffff9450505050506109dd565b8281815181106108d0577f4e487b7100000000000000000000000000000000000000000000000000000000600052603260045260246000fd5b602001015160f81c60f81b7effffffffffffffffffffffffffffffffffffffffffffffffffffffffffffff1916848281518110610936577f4e487b7100000000000000000000000000000000000000000000000000000000600052603260045260246000fd5b602001015160f81c60f81b7effffffffffffffffffffffffffffffffffffffffffffffffffffffffffffff191611156109765760019450505050506109dd565b808061098190612b97565b915050610791565b508151835110156109bf577fffffffffffffffffffffffffffffffffffffffffffffffffffffffffffffffff93505050506109dd565b8151835111156109d557600193505050506109dd565b600093505050505b92915050565b6000806109f0848461076f565b14905092915050565b6000806000600260008573ffffffffffffffffffffffffffffffffffffffff1673ffffffffffffffffffffffffffffffffffffffff16815260200190815260200160002060000154600260008673ffffffffffffffffffffffffffffffffffffffff1673ffffffffffffffffffffffffffffffffffffffff16815260200190815260200160002060010154600260008773ffffffffffffffffffffffffffffffffffffffff1673ffffffffffffffffffffffffffffffffffffffff168152602001908152602001600020600201549250925092509193909250565b60606000806060600080600090505b600180549050811015610ecd57610bcd60018281548110610b2d577f4e487b7100000000000000000000000000000000000000000000000000000000600052603260045260246000fd5b90600052602060002090600602016004018054610b4990612b34565b80601f0160208091040260200160405190810160405280929190818152602001828054610b7590612b34565b8015610bc25780601f10610b9757610100808354040283529160200191610bc2565b820191906000526020600020905b815481529060010190602001808311610ba557829003601f168201915b5050505050886109e3565b15610eba5760018181548110610c0c577f4e487b7100000000000000000000000000000000000000000000000000000000600052603260045260246000fd5b906000526020600020906006020160000160009054906101000a900473ffffffffffffffffffffffffffffffffffffffff16945060018181548110610c7a577f4e487b7100000000000000000000000000000000000000000000000000000000600052603260045260246000fd5b906000526020600020906006020160010160009054906101000a900473ffffffffffffffffffffffffffffffffffffffff16935060018181548110610ce8577f4e487b7100000000000000000000000000000000000000000000000000000000600052603260045260246000fd5b90600052602060002090600602016002018054610d0490612b34565b80601f0160208091040260200160405190810160405280929190818152602001828054610d3090612b34565b8015610d7d5780601f10610d5257610100808354040283529160200191610d7d565b820191906000526020600020905b815481529060010190602001808311610d6057829003601f168201915b5050505050955060018181548110610dbe577f4e487b7100000000000000000000000000000000000000000000000000000000600052603260045260246000fd5b90600052602060002090600602016003018054610dda90612b34565b80601f0160208091040260200160405190810160405280929190818152602001828054610e0690612b34565b8015610e535780601f10610e2857610100808354040283529160200191610e53565b820191906000526020600020905b815481529060010190602001808311610e3657829003601f168201915b5050505050925060018181548110610e94577f4e487b7100000000000000000000000000000000000000000000000000000000600052603260045260246000fd5b906000526020600020906006020160050160009054906101000a900460ff169150610ecd565b8080610ec590612b97565b915050610ae3565b5091939590929450565b6000808390506000839050600182511080610ef3575060018151105b80610eff575081518151115b15610f2e577fffffffffffffffffffffffffffffffffffffffffffffffffffffffffffffffff925050506111ba565b6fffffffffffffffffffffffffffffffff82511115610f71577fffffffffffffffffffffffffffffffffffffffffffffffffffffffffffffffff925050506111ba565b6000805b83518110156111925782600081518110610fb8577f4e487b7100000000000000000000000000000000000000000000000000000000600052603260045260246000fd5b602001015160f81c60f81b7effffffffffffffffffffffffffffffffffffffffffffffffffffffffffffff191684828151811061101e577f4e487b7100000000000000000000000000000000000000000000000000000000600052603260045260246000fd5b602001015160f81c60f81b7effffffffffffffffffffffffffffffffffffffffffffffffffffffffffffff1916141561117f57600191505b82518210801561107157508351828261106f9190612a25565b105b801561115157508282815181106110b1577f4e487b7100000000000000000000000000000000000000000000000000000000600052603260045260246000fd5b602001015160f81c60f81b7effffffffffffffffffffffffffffffffffffffffffffffffffffffffffffff19168483836110eb9190612a25565b81518110611122577f4e487b7100000000000000000000000000000000000000000000000000000000600052603260045260246000fd5b602001015160f81c60f81b7effffffffffffffffffffffffffffffffffffffffffffffffffffffffffffff1916145b1561116957818061116190612b97565b925050611056565b825182141561117e57809450505050506111ba565b5b808061118a90612b97565b915050610f75565b507fffffffffffffffffffffffffffffffffffffffffffffffffffffffffffffffff93505050505b92915050565b60008054906101000a900473ffffffffffffffffffffffffffffffffffffffff1681565b6060600060608060008060008790505b600180549050811015611606578873ffffffffffffffffffffffffffffffffffffffff1660018281548110611252577f4e487b7100000000000000000000000000000000000000000000000000000000600052603260045260246000fd5b906000526020600020906006020160000160009054906101000a900473ffffffffffffffffffffffffffffffffffffffff1673ffffffffffffffffffffffffffffffffffffffff1614156115f357600181815481106112da577f4e487b7100000000000000000000000000000000000000000000000000000000600052603260045260246000fd5b906000526020600020906006020160010160009054906101000a900473ffffffffffffffffffffffffffffffffffffffff16955060018181548110611348577f4e487b7100000000000000000000000000000000000000000000000000000000600052603260045260246000fd5b9060005260206000209060060201600201805461136490612b34565b80601f016020809104026020016040519081016040528092919081815260200182805461139090612b34565b80156113dd5780601f106113b2576101008083540402835291602001916113dd565b820191906000526020600020905b8154815290600101906020018083116113c057829003601f168201915b505050505096506001818154811061141e577f4e487b7100000000000000000000000000000000000000000000000000000000600052603260045260246000fd5b9060005260206000209060060201600301805461143a90612b34565b80601f016020809104026020016040519081016040528092919081815260200182805461146690612b34565b80156114b35780601f10611488576101008083540402835291602001916114b3565b820191906000526020600020905b81548152906001019060200180831161149657829003601f168201915b50505050509450600181815481106114f4577f4e487b7100000000000000000000000000000000000000000000000000000000600052603260045260246000fd5b9060005260206000209060060201600401805461151090612b34565b80601f016020809104026020016040519081016040528092919081815260200182805461153c90612b34565b80156115895780601f1061155e57610100808354040283529160200191611589565b820191906000526020600020905b81548152906001019060200180831161156c57829003601f168201915b50505050509350600181815481106115ca577f4e487b7100000000000000000000000000000000000000000000000000000000600052603260045260246000fd5b906000526020600020906006020160050160009054906101000a900460ff169250809150611606565b80806115fe90612b97565b9150506111f4565b509295509295509295565b6060600060608060008060008790505b600180549050811015611a33578873ffffffffffffffffffffffffffffffffffffffff166001828154811061167f577f4e487b7100000000000000000000000000000000000000000000000000000000600052603260045260246000fd5b906000526020600020906006020160010160009054906101000a900473ffffffffffffffffffffffffffffffffffffffff1673ffffffffffffffffffffffffffffffffffffffff161415611a205760018181548110611707577f4e487b7100000000000000000000000000000000000000000000000000000000600052603260045260246000fd5b906000526020600020906006020160000160009054906101000a900473ffffffffffffffffffffffffffffffffffffffff16955060018181548110611775577f4e487b7100000000000000000000000000000000000000000000000000000000600052603260045260246000fd5b9060005260206000209060060201600201805461179190612b34565b80601f01602080910402602001604051908101604052809291908181526020018280546117bd90612b34565b801561180a5780601f106117df5761010080835404028352916020019161180a565b820191906000526020600020905b8154815290600101906020018083116117ed57829003601f168201915b505050505096506001818154811061184b577f4e487b7100000000000000000000000000000000000000000000000000000000600052603260045260246000fd5b9060005260206000209060060201600301805461186790612b34565b80601f016020809104026020016040519081016040528092919081815260200182805461189390612b34565b80156118e05780601f106118b5576101008083540402835291602001916118e0565b820191906000526020600020905b8154815290600101906020018083116118c357829003601f168201915b5050505050945060018181548110611921577f4e487b7100000000000000000000000000000000000000000000000000000000600052603260045260246000fd5b9060005260206000209060060201600401805461193d90612b34565b80601f016020809104026020016040519081016040528092919081815260200182805461196990612b34565b80156119b65780601f1061198b576101008083540402835291602001916119b6565b820191906000526020600020905b81548152906001019060200180831161199957829003601f168201915b50505050509350600181815481106119f7577f4e487b7100000000000000000000000000000000000000000000000000000000600052603260045260246000fd5b906000526020600020906006020160050160009054906101000a900460ff169250809150611a33565b8080611a2b90612b97565b915050611621565b509295509295509295565b60005b60018054905081101561242d57611b2b60018281548110611a8b577f4e487b7100000000000000000000000000000000000000000000000000000000600052603260045260246000fd5b90600052602060002090600602016004018054611aa790612b34565b80601f0160208091040260200160405190810160405280929190818152602001828054611ad390612b34565b8015611b205780601f10611af557610100808354040283529160200191611b20565b820191906000526020600020905b815481529060010190602001808311611b0357829003601f168201915b5050505050846109e3565b8015611bcd57503373ffffffffffffffffffffffffffffffffffffffff1660018281548110611b83577f4e487b7100000000000000000000000000000000000000000000000000000000600052603260045260246000fd5b906000526020600020906006020160010160009054906101000a900473ffffffffffffffffffffffffffffffffffffffff1673ffffffffffffffffffffffffffffffffffffffff16145b8015611ca1575060006002811115611c0e577f4e487b7100000000000000000000000000000000000000000000000000000000600052602160045260246000fd5b60018281548110611c48577f4e487b7100000000000000000000000000000000000000000000000000000000600052603260045260246000fd5b906000526020600020906006020160050160009054906101000a900460ff166002811115611c9f577f4e487b7100000000000000000000000000000000000000000000000000000000600052602160045260246000fd5b145b1561241a577f486862e915c1394d45f1072ee920f5ce06606f2b7453903ab5ef67bd212ab03a33604051611cd59190612834565b60405180910390a1600280811115611d16577f4e487b7100000000000000000000000000000000000000000000000000000000600052602160045260246000fd5b826002811115611d4f577f4e487b7100000000000000000000000000000000000000000000000000000000600052602160045260246000fd5b141561202c5760016002600060018481548110611d95577f4e487b7100000000000000000000000000000000000000000000000000000000600052603260045260246000fd5b906000526020600020906006020160000160009054906101000a900473ffffffffffffffffffffffffffffffffffffffff1673ffffffffffffffffffffffffffffffffffffffff1673ffffffffffffffffffffffffffffffffffffffff16815260200190815260200160002060010154611e0f9190612a25565b6002600060018481548110611e4d577f4e487b7100000000000000000000000000000000000000000000000000000000600052603260045260246000fd5b906000526020600020906006020160000160009054906101000a900473ffffffffffffffffffffffffffffffffffffffff1673ffffffffffffffffffffffffffffffffffffffff1673ffffffffffffffffffffffffffffffffffffffff1681526020019081526020016000206001018190555060016002600060018481548110611f00577f4e487b7100000000000000000000000000000000000000000000000000000000600052603260045260246000fd5b906000526020600020906006020160010160009054906101000a900473ffffffffffffffffffffffffffffffffffffffff1673ffffffffffffffffffffffffffffffffffffffff1673ffffffffffffffffffffffffffffffffffffffff16815260200190815260200160002060010154611f7a9190612a25565b6002600060018481548110611fb8577f4e487b7100000000000000000000000000000000000000000000000000000000600052603260045260246000fd5b906000526020600020906006020160010160009054906101000a900473ffffffffffffffffffffffffffffffffffffffff1673ffffffffffffffffffffffffffffffffffffffff1673ffffffffffffffffffffffffffffffffffffffff168152602001908152602001600020600101819055505b60016002811115612066577f4e487b7100000000000000000000000000000000000000000000000000000000600052602160045260246000fd5b82600281111561209f577f4e487b7100000000000000000000000000000000000000000000000000000000600052602160045260246000fd5b141561237c57600160026000600184815481106120e5577f4e487b7100000000000000000000000000000000000000000000000000000000600052603260045260246000fd5b906000526020600020906006020160000160009054906101000a900473ffffffffffffffffffffffffffffffffffffffff1673ffffffffffffffffffffffffffffffffffffffff1673ffffffffffffffffffffffffffffffffffffffff1681526020019081526020016000206001015461215f9190612a25565b600260006001848154811061219d577f4e487b7100000000000000000000000000000000000000000000000000000000600052603260045260246000fd5b906000526020600020906006020160000160009054906101000a900473ffffffffffffffffffffffffffffffffffffffff1673ffffffffffffffffffffffffffffffffffffffff1673ffffffffffffffffffffffffffffffffffffffff1681526020019081526020016000206000018190555060016002600060018481548110612250577f4e487b7100000000000000000000000000000000000000000000000000000000600052603260045260246000fd5b906000526020600020906006020160010160009054906101000a900473ffffffffffffffffffffffffffffffffffffffff1673ffffffffffffffffffffffffffffffffffffffff1673ffffffffffffffffffffffffffffffffffffffff168152602001908152602001600020600001546122ca9190612a25565b6002600060018481548110612308577f4e487b7100000000000000000000000000000000000000000000000000000000600052603260045260246000fd5b906000526020600020906006020160010160009054906101000a900473ffffffffffffffffffffffffffffffffffffffff1673ffffffffffffffffffffffffffffffffffffffff1673ffffffffffffffffffffffffffffffffffffffff168152602001908152602001600020600001819055505b81600182815481106123b7577f4e487b7100000000000000000000000000000000000000000000000000000000600052603260045260246000fd5b906000526020600020906006020160050160006101000a81548160ff02191690836002811115612410577f4e487b7100000000000000000000000000000000000000000000000000000000600052602160045260246000fd5b021790555061242d565b808061242590612b97565b915050611a41565b505050565b82805461243e90612b34565b90600052602060002090601f01602090048101928261246057600085556124a7565b82601f1061247957805160ff19168380011785556124a7565b828001600101855582156124a7579182015b828111156124a657825182559160200191906001019061248b565b5b5090506124b491906124b8565b5090565b5b808211156124d15760008160009055506001016124b9565b5090565b60006124e86124e3846129d8565b6129b3565b90508281526020810184848401111561250057600080fd5b61250b848285612af2565b509392505050565b60008135905061252281612cea565b92915050565b60008135905061253781612d01565b92915050565b600082601f83011261254e57600080fd5b813561255e8482602086016124d5565b91505092915050565b60008135905061257681612d11565b92915050565b60006020828403121561258e57600080fd5b600061259c84828501612513565b91505092915050565b600080600080608085870312156125bb57600080fd5b60006125c987828801612513565b945050602085013567ffffffffffffffff8111156125e657600080fd5b6125f28782880161253d565b935050604085013567ffffffffffffffff81111561260f57600080fd5b61261b8782880161253d565b925050606085013567ffffffffffffffff81111561263857600080fd5b6126448782880161253d565b91505092959194509250565b6000806040838503121561266357600080fd5b600061267185828601612513565b925050602061268285828601612567565b9150509250929050565b60006020828403121561269e57600080fd5b600082013567ffffffffffffffff8111156126b857600080fd5b6126c48482850161253d565b91505092915050565b600080604083850312156126e057600080fd5b600083013567ffffffffffffffff8111156126fa57600080fd5b6127068582860161253d565b925050602061271785828601612528565b9150509250929050565b6000806040838503121561273457600080fd5b600083013567ffffffffffffffff81111561274e57600080fd5b61275a8582860161253d565b925050602083013567ffffffffffffffff81111561277757600080fd5b6127838582860161253d565b9150509250929050565b61279681612a7b565b82525050565b6127a581612a8d565b82525050565b6127b481612ae0565b82525050565b6127c381612aac565b82525050565b60006127d482612a09565b6127de8185612a14565b93506127ee818560208601612b01565b6127f781612c9c565b840191505092915050565b600061280f601983612a14565b915061281a82612cad565b602082019050919050565b61282e81612ad6565b82525050565b6000602082019050612849600083018461278d565b92915050565b6000602082019050612864600083018461279c565b92915050565b600060208201905061287f60008301846127ba565b92915050565b600060a082019050818103600083015261289f81886127c9565b90506128ae602083018761278d565b6128bb604083018661278d565b81810360608301526128cd81856127c9565b90506128dc60808301846127ab565b9695505050505050565b600060c082019050818103600083015261290081896127c9565b905061290f602083018861278d565b818103604083015261292181876127c9565b9050818103606083015261293581866127c9565b905061294460808301856127ab565b61295160a0830184612825565b979650505050505050565b6000602082019050818103600083015261297581612802565b9050919050565b60006060820190506129916000830186612825565b61299e6020830185612825565b6129ab6040830184612825565b949350505050565b60006129bd6129ce565b90506129c98282612b66565b919050565b6000604051905090565b600067ffffffffffffffff8211156129f3576129f2612c6d565b5b6129fc82612c9c565b9050602081019050919050565b600081519050919050565b600082825260208201905092915050565b6000612a3082612ad6565b9150612a3b83612ad6565b9250827fffffffffffffffffffffffffffffffffffffffffffffffffffffffffffffffff03821115612a7057612a6f612be0565b5b828201905092915050565b6000612a8682612ab6565b9050919050565b60008115159050919050565b6000819050612aa782612cd6565b919050565b6000819050919050565b600073ffffffffffffffffffffffffffffffffffffffff82169050919050565b6000819050919050565b6000612aeb82612a99565b9050919050565b82818337600083830152505050565b60005b83811015612b1f578082015181840152602081019050612b04565b83811115612b2e576000848401525b50505050565b60006002820490506001821680612b4c57607f821691505b60208210811415612b6057612b5f612c3e565b5b50919050565b612b6f82612c9c565b810181811067ffffffffffffffff82111715612b8e57612b8d612c6d565b5b80604052505050565b6000612ba282612ad6565b91507fffffffffffffffffffffffffffffffffffffffffffffffffffffffffffffffff821415612bd557612bd4612be0565b5b600182019050919050565b7f4e487b7100000000000000000000000000000000000000000000000000000000600052601160045260246000fd5b7f4e487b7100000000000000000000000000000000000000000000000000000000600052602160045260246000fd5b7f4e487b7100000000000000000000000000000000000000000000000000000000600052602260045260246000fd5b7f4e487b7100000000000000000000000000000000000000000000000000000000600052604160045260246000fd5b6000601f19601f8301169050919050565b7f54686520646f63756d656e74206973206e6f7420666f756e6400000000000000600082015250565b60038110612ce757612ce6612c0f565b5b50565b612cf381612a7b565b8114612cfe57600080fd5b50565b60038110612d0e57600080fd5b50565b612d1a81612ad6565b8114612d2557600080fd5b5056fea2646970667358221220f8b2f7cb4eab35b2fd24740271c3c5c0eadc66c16518fcee099ac465456c7f6064736f6c63430008040033",
  "linkReferences": {},
  "deployedLinkReferences": {}
}